S01300006E6F646F5F61746D6567612E7372656393
S11300000C9434000C9446000C9446000C94460066
S11300100C9446000C9446000C9446000C94460044
S11300200C9446000C9446000C9446000C94460034
S11300300C9446000C9446000C9446000C94460024
S11300400C9446000C9446000C9446000C94460014
S11300500C9446000C9446000C9446000C94460004
S11300600C9446000C94460011241FBECFEFD8E038
S1130070DEBFCDBF21E0A0E0B1E001C01D92A03001
S1130080B207E1F70E94BD010C94A1030C94000097
S11300909093C5008093C40082E08093C00088E1FF
S11300A08093C1008EE08093C2000895E0ECF0E0FC
S11300B0908195FFFDCF8093C60008958EE284B9A8
S11300C081E58CBD84E085B915B808958EBD0DB465
S11300D007FEFDCF8EB50895CF93DF93D62F15B8C5
S11300E08F7180620E946600C82F8D2F0E94660067
S11300F084E085B98C2FDF91CF9108952FEF81EEA5
S113010094E0215080409040E1F700C0000060E09E
S113011081E00E946C006FE382E00E946C0062E068
S113012080E00E946C0015B880E30E9466008AEAB1
S11301300E94660082EC0E94660082EC0E946600C7
S113014082EC0E94660082EC0E94660084E085B91D
S11301508FE99FE00197F1F700C000000895CF9365
S1130160DF93D82FC62F62E080E00E946C0015B8A0
S113017080EB0E9466008D2F0E9466008C2F0E94E7
S1130180660084E085B982E085B985E88A95F1F74F
S1130190000015B88BE291E00197F1F700C0000070
S11301A0DF91CF9108955F9857984F9B04C00AC080
S11301B0815011F41BC08FE792E09A95F1F700C0CB
S11301C04F9BF6CF579AEFEBF3E03197F1F700C06E
S11301D000005798F0EBFA95F1F789B18078EBE3DA
S11301E0F3E03197F1F700C00000089582E008952C
S11301F098E03FB7F894579A22E02A95F1F700C0A7
S113020080FD579845E24A95F1F7000029B148E787
S11302104A95F1F757983FBF869522230CF48068DE
S1130220915039F708958FEF0E94F8000895CF9305
S1130230DF930E94D3008CEC0E94F80084E40E94B7
S1130240F8000E94D3008CEC0E94F8008EEB0E9410
S1130250F8000E941301C82FD0E00E9413019E01F0
S1130260382B922F9295907F80E069E979E10E9482
S11302707E03CB01880F991F660F771F660F771FC8
S1130280660F771F680F791F329522952F702327E9
S11302903F70232744E6429FC001439F900D1124E1
S11302A0860F971FDF91CF910895CF92DF92EF923F
S11302B0FF92CF93DF93AC019C0136952795369539
S11302C02795ABE7B4E10E94920396958795C82FD2
S11302D0D42FD81BD83C00F1BC017727072E000C83
S11302E0880B990B0E9485026B017C016D2F70E0D5
S11302F080E090E00E9485022AE037ED43E25CE36F
S11303000E9411039B01AC01C701B6010E94E801E0
S11303100E945402C62FD85CD436F0F06D2F70E0E2
S113032080E090E00E9485022AE037ED43E25CE33E
S11303300E9411036B017C016C2F70E080E090E05F
S11303400E9485029B01AC01C701B6010E94E8012D
S11303500E945402C62FD4566C2F8D2F0E94AF00DA
S11303608C2F0E9456008D2F0E945600DF91CF9152
S1130370FF90EF90DF90CF90089587E690E00E9481
S113038048000E945E000E947E000E9417012FEF29
S11303903EE944E2215030404040E1F700C0000013
S11303A00E9417012FEF36E141E1215030404040D7
S11303B0E1F700C000000E9455018FEF93ED20E3A8
S11303C0815090402040E1F700C00000E9CF505830
S11303D0BB27AA270E94FF010C94D7020E94C902DE
S11303E038F00E94D00220F039F49F3F19F426F42B
S11303F00C94C6020EF4E095E7FB0C94C002E92FBE
S11304000E94E80258F3BA17620773078407950736
S113041020F079F4A6F50C940A030EF4E0950B2E63
S1130420BA2FA02D0B01B90190010C01CA01A00142
S11304301124FF27591B99F0593F50F4503E68F19D
S11304401A16F040A22F232F342F4427585FF3CFDE
S1130450469537952795A795F0405395C9F77EF4AF
S11304601F16BA0B620B730B840BBAF09150A1F0F8
S1130470FF0FBB1F661F771F881FC2F70EC0BA0F7E
S1130480621F731F841F48F4879577956795B79506
S1130490F7959E3F08F0B0CF9395880F08F0992701
S11304A0EE0F9795879508950E94F00288F09F5764
S11304B098F0B92F9927B751B0F0E1F0660F771F84
S11304C0881F991F1AF0BA95C9F714C0B13091F07A
S11304D00E940A03B1E008950C940A03672F782F51
S11304E08827B85F39F0B93FCCF38695779567953F
S11304F0B395D9F73EF490958095709561957F4FAB
S11305008F4F9F4F0895E89409C097FB3EF4909550
S11305108095709561957F4F8F4F9F4F9923A9F0D8
S1130520F92F96E9BB279395F69587957795679567
S1130530B795F111F8CFFAF4BB0F11F460FF1BC0AB
S11305406F5F7F4F8F4F9F4F16C0882311F096E93E
S113055011C0772321F09EE8872F762F05C06623EC
S113056071F096E8862F70E060E02AF09A95660FA5
S1130570771F881FDAF7880F9695879597F908955E
S113058097F99F6780E870E060E008959FEF80EC42
S1130590089500240A9416161706180609060895E5
S11305A000240A9412161306140605060895092E4B
S11305B00394000C11F4882352F0BB0F40F4BF2BBA
S11305C011F460FF04C06F5F7F4F8F4F9F4F0895FA
S11305D057FD9058440F551F59F05F3F71F04795F0
S11305E0880F97FB991F61F09F3F79F087950895D5
S11305F0121613061406551FF2CF4695F1DF08C0F4
S1130600161617061806991FF1CF86957105610510
S113061008940895E894BB2766277727CB0197F9B8
S113062008950E9424030C94D7020E94C90238F052
S11306300E94D00220F0952311F00C94C0020C9477
S1130640C60211240C940B030E94E80270F3959FD8
S1130650C1F3950F50E0551F629FF001729FBB27B5
S1130660F00DB11D639FAA27F00DB11DAA1F649F51
S11306706627B00DA11D661F829F2227B00DA11D04
S1130680621F739FB00DA11D621F839FA00D611D8A
S1130690221F749F3327A00D611D231F849F600DAB
S11306A0211D822F762F6A2F11249F5750409AF0D4
S11306B0F1F088234AF0EE0FFF1FBB1F661F771F60
S11306C0881F91505040A9F79E3F510580F00C942B
S11306D0C0020C940B035F3FE4F3983ED4F3869579
S11306E077956795B795F795E7959F5FC1F7FE2BCB
S11306F0880F911D9695879597F90895AA1BBB1BA2
S113070051E107C0AA1FBB1FA617B70710F0A61B0D
S1130710B70B881F991F5A95A9F780959095BC012E
S1130720CD010895A29FB001B39FC001A39F700D96
S1130730811D1124911DB29F700D811D1124911DE5
S10907400895F894FFCFB8
S9030000FC
