:100000000C94B1000C94CE000C94CE000C94CE0055
:100010000C94CE000C94CE000C94CE000C94CE0028
:100020000C94CE000C94CE000C94CE000C94CE0018
:100030000C94CE000C94CE000C94CE000C94CE0008
:100040000C94CE000C94CE000C94CE000C94CE00F8
:100050000C94CE000C94CE000C94CE000C94CE00E8
:100060000C94CE000C94CE0000407A10F35A00A0FD
:10007000724E18090010A5D4E80000E87648170071
:1000800000E40B54020000CA9A3B000000E1F505B1
:10009000000080969800000040420F000000A086FB
:1000A00001000000102700000000E803000000002D
:1000B0006400000000000A000000000001000000D1
:1000C00000002C76D888DC674F0823DFC1DFAE59EB
:1000D000E1B1B796E5E3E453C63AE651997696E87E
:1000E000E6C28426EB898C9B62ED407C6FFCEFBC02
:1000F0009C9F40F2BAA56FA5F490055A2AF75C932D
:100100006B6CF9676DC11BFCE0E40D47FEF520E662
:10011000B500D0ED902E0300943577050080841E45
:10012000080000204E0A000000C80C333333330FA0
:10013000986E12831141EF8D2114893BE65516CF3D
:10014000FEE6DB18D1844B381BF77C1D901DA4BB49
:10015000E424203284725E228100C9F124ECA1E5FE
:100160003D2711241FBECFEFD8E0DEBFCDBF11E089
:10017000A0E0B1E0E6E0FDE002C005900D92AE3BEC
:10018000B107D9F721E0AEEBB1E001C01D92A03C70
:10019000B207E1F70E9416020C9481060C9400004D
:1001A0001092C50083E38093C40088ED8093C10062
:1001B00086E08093C2000895CF93DF93EC01AC01F9
:1001C00020E030E0E0ECF0E066EC70E00AC0908106
:1001D00095FFFDCFDA018D91AD01DB018C932F5F8F
:1001E0003F4FDE010D900020E9F71197AC1BBD0BCE
:1001F0002A173B0760F3DF91CF910895EF92FF92AA
:100200000F931F93CF93DF9300D000D01F92CDB7F1
:10021000DEB77A018E010F5F1F4F22E044E00E949B
:10022000F80385E391E00E94DC002FEF31E18AE7DB
:10023000215030408040E1F700C000008EE591E0A1
:100240000E94DC009FEF21E13AE7915020403040CE
:10025000E1F700C000008EE691E00E94DC0081E042
:10026000E816F10429F480E991E00E94DC0012C054
:1002700092E0E916F10429F488E991E00E94DC009B
:1002800011C023E0E216F10429F480EA91E00E9413
:10029000DC0008C034E0E316F10421F488EA91E0C0
:1002A0000E94DC00CE0101960E94DC0082E391E016
:1002B0000E94DC0084E595E825E431E0815090401F
:1002C00020403040D9F700C000C0000080EB91E032
:1002D0000E94DC008FEF91E12AE78150904020409E
:1002E000E1F700C000000F900F900F900F900F905B
:1002F000DF91CF911F910F91FF90EF9008958EE2C3
:1003000084B981E58CBD84E085B915B808958EBDAA
:100310000DB407FEFDCF8EB5089515B88F710E94FC
:1003200087018FEF0E94870194E095B90895CF93DC
:10033000DF93D62F15B88F7180620E948701C82F76
:100340008D2F0E94870184E085B98C2FDF91CF919A
:1003500008952FEF81EE94E0215080409040E1F726
:1003600000C0000060E081E00E94970160E282E04E
:100370000E94970162E080E00E94970161E081E1C4
:100380000E94970161E082E10E94970161E083E1B0
:100390000E94970161E084E10E94970161E085E19C
:1003A0000E94970162E086E10E94970162E080E08E
:1003B0000E9497018FE99FE00197F1F700C00000CC
:1003C0000895682F8FE00E949701089563E080E010
:1003D0000E94970182E085B92FEF80E792E02150DB
:1003E00080409040E1F700C0000087E00E948D014E
:1003F000982F907486FF17C015B881E60E94870178
:100400008FEF0E9487018093BF018FEF0E948701C9
:100410008093BE0184E085B915B860E487E00E944E
:1004200097019FEF01C015B8892F08950E94D00051
:100430000E947F010E94A90186EC0E94E1010E94B6
:10044000E60181110AC06091BF0170E08091BE0198
:1004500090E00E94E6018823B1F36091BF0170E053
:1004600080E090E00E94FF022AE037ED43E25CE387
:100470000E948B036B017C016091BE0170E080E003
:1004800090E00E94FF029B01AC01C701B6010E94EF
:1004900091026B017C018AEA0E94E1010E94E6015F
:1004A00081110AC06091BF0170E08091BE0190E0AF
:1004B0000E94E6018823B1F36091BF0170E080E003
:1004C00090E00E94FF022AE037ED43E25CE30E94E5
:1004D0008B034B015C016091BE0170E080E090E015
:1004E0000E94FF029B01AC01C501B4010E94910270
:1004F0004B015C0141E050E0C701B6010E94FE00E3
:1005000042E050E0C501B4010E94FE002FEF83E2FB
:1005100094EF215080409040E1F700C000008CCF64
:100520005058BB27AA270E94A8020C9451030E948E
:10053000430338F00E944A0320F039F49F3F19F436
:1005400026F40C9440030EF4E095E7FB0C943A0378
:10055000E92F0E94620358F3BA17620773078407F2
:10056000950720F079F4A6F50C9484030EF4E09539
:100570000B2EBA2FA02D0B01B90190010C01CA015D
:10058000A0011124FF27591B99F0593F50F4503E08
:1005900068F11A16F040A22F232F342F4427585FFA
:1005A000F3CF469537952795A795F0405395C9F712
:1005B0007EF41F16BA0B620B730B840BBAF09150CA
:1005C000A1F0FF0FBB1F661F771F881FC2F70EC069
:1005D000BA0F621F731F841F48F48795779567953C
:1005E000B795F7959E3F08F0B0CF9395880F08F028
:1005F0009927EE0F979587950895E89409C097FB82
:100600003EF490958095709561957F4F8F4F9F4FE9
:100610009923A9F0F92F96E9BB279395F69587952D
:1006200077956795B795F111F8CFFAF4BB0F11F4F0
:1006300060FF1BC06F5F7F4F8F4F9F4F16C0882397
:1006400011F096E911C0772321F09EE8872F762FCD
:1006500005C0662371F096E8862F70E060E02AF00E
:100660009A95660F771F881FDAF7880F96958795FA
:1006700097F9089597F99F6780E870E060E0089522
:100680009FEF80EC089500240A94161617061806AA
:100690000906089500240A94121613061406050686
:1006A0000895092E0394000C11F4882352F0BB0F17
:1006B00040F4BF2B11F460FF04C06F5F7F4F8F4F7A
:1006C0009F4F089557FD9058440F551F59F05F3FB5
:1006D00071F04795880F97FB991F61F09F3F79F064
:1006E00087950895121613061406551FF2CF4695E6
:1006F000F1DF08C0161617061806991FF1CF869568
:100700007105610508940895E894BB27662777274B
:10071000CB0197F908950E949E030C9451030E9407
:10072000430338F00E944A0320F0952311F00C9403
:100730003A030C94400311240C9485030E94620335
:1007400070F3959FC1F3950F50E0551F629FF00124
:10075000729FBB27F00DB11D639FAA27F00DB11D3D
:10076000AA1F649F6627B00DA11D661F829F2227C6
:10077000B00DA11D621F739FB00DA11D621F839F4D
:10078000A00D611D221F749F3327A00D611D231F23
:10079000849F600D211D822F762F6A2F11249F5771
:1007A00050409AF0F1F088234AF0EE0FFF1FBB1F74
:1007B000661F771F881F91505040A9F79E3F510533
:1007C00080F00C943A030C9485035F3FE4F3983E69
:1007D000D4F3869577956795B795F795E7959F5FDD
:1007E000C1F7FE2B880F911D9695879597F908956F
:1007F000EF920F931F93CF93DF93E80147FD02C061
:1008000034E001C034E1042E000C550B57FF03C047
:10081000519541955109E32E022F242FAE010E94DC
:100820001804CE01DF91CF911F910F91EF900895A1
:10083000A9E0B0E0EEE1F4E00C9450066A01122F5A
:10084000B02E2BE3201720F0FF24F394F00E02C00B
:100850002CE3F22E0F2D27E0AE014F5F5F4F0E9479
:100860007205BC014981842F8970813031F0E1FC2F
:1008700006C0E0FE06C090E205C09DE203C09BE218
:1008800001C090E05E2D507143FF3CC0911102C049
:1008900083E001C084E0811718F4212F281B01C0D8
:1008A00020E051110BC0F601822F30E2882319F0AD
:1008B00031938150FBCFC20ED11C20E0992329F047
:1008C000D6019C93F60131966F01C6010396E2FEB4
:1008D0000AC03EE4D6013C9341E411964C93119733
:1008E00012963C9306C03EE6F601308341E6418312
:1008F0003283FC01322F40E2332309F442C041939A
:100900003150FACF42FF44C0911102C083E001C0D0
:1009100084E0811718F4212F281B01C020E0511119
:100920000BC0F601822F30E2882319F031938150F9
:10093000FBCFC20ED11C20E0992329F0D6019C9355
:10094000F60131966F01C6010396E2FE0BC039E451
:10095000D6013C933EE411963C93119736E41296EF
:100960003C9307C039E6F60130833EE6318336E634
:100970003283FC01322F40E2332319F0419331508E
:10098000FBCFFC01E20FF11D10828EEF9FEFA6C09E
:1009900021E030E0911102C020E030E01616170689
:1009A0001CF4FB01319602C0E1E0F0E02E0F3F1F86
:1009B000BB2021F0EB2DF0E0319602C0E0E0F0E04A
:1009C0002E0F3F1FE12FF0E02E173F071CF4121BE4
:1009D000212F01C020E08E2D887159F4F601822F5D
:1009E00030E2882319F031938150FBCFC20ED11C25
:1009F00020E0992329F0D6019C93F60131966F01EE
:100A000051110BC0F601822F90E3882319F09193C6
:100A10008150FBCFC20ED11C20E00F2D060F9A8112
:100A2000342F307144FF03C0913309F40150101684
:100A300024F4093018F008E001C001E0AB0177FFB1
:100A400002C040E050E0FB01E41BF50BA1E0B0E088
:100A5000AC0FBD1FEA0FFB1F8EE2A82E4B01801AC0
:100A600091080B2D10E01195019511094F3FBFEF33
:100A70005B0721F4D601AC9211966D0164177507DE
:100A80002CF08416950614F4818101C080E3415056
:100A900051093196D60111967D014017510724F076
:100AA000D6018C936701E2CF6417750739F496334A
:100AB00020F4953319F4311101C081E3F6018083EC
:100AC000F701822F90E2882319F091938150FBCF98
:100AD000F701E20FF11D108280E090E02996ECE032
:100AE0000C946C06283008F027E03327DA01990FC0
:100AF000311D87FD916000966105710539F4326002
:100B00002E5F3D9330E32A95E1F708959F3F30F043
:100B100080387105610509F03C5F3C5F3D93913081
:100B200008F08068911DDF93CF931F930F93FF927E
:100B3000EF92192F987F9695E92F96959695E90F44
:100B4000FF27EE53FF4F99273327EE24FF24A701F9
:100B5000E70105900894079428F4360FE71EF81E65
:100B6000491F511D660F771F881F991F0694A1F713
:100B70000590079428F4E70EF81E491F561FC11D63
:100B8000770F881F991F661F0694A1F70590079499
:100B900028F4F80E491F561FC71FD11D880F991F33
:100BA000661F771F0694A1F70590079420F4490F5C
:100BB000561FC71FD81F990F661F771F881F0694DF
:100BC000A9F784911095177041F0D695C795579560
:100BD0004795F794E7941A95C1F7E8E6F0E0689432
:100BE0001590159135916591959105907FE27395DA
:100BF000E118F10A430B560BC90BD009C0F7E10C01
:100C0000F11E431F561FC91FD01D7EF4703311F40F
:100C10008A95E6CFE894015030F0080F0AF40027D7
:100C2000021708F4202F2395022F7A3328F079E356
:100C30007D932A95E9F710C07D932A9589F606944D
:100C400097956795379517951794E118F10A430B17
:100C5000560BC90BD00998F023957E9173957A3382
:100C600008F070E37C932013B8F77E9170617D9358
:100C700030F0839571E37D9370E32A95E1F71124B9
:100C8000EF90FF900F911F91CF91DF91992787FDF2
:100C9000909508952F923F924F925F926F927F921C
:100CA0008F929F92AF92BF92CF92DF92EF92FF927C
:100CB0000F931F93CF93DF93CDB7DEB7CA1BDB0B28
:100CC0000FB6F894DEBF0FBECDBF09942A883988CD
:100CD00048885F846E847D848C849B84AA84B984D4
:100CE000C884DF80EE80FD800C811B81AA81B981E0
:100CF000CE0FD11D0FB6F894DEBF0FBECDBFED01F4
:060D00000895F894FFCFF6
:100D060041540D0A0041542B43574D4F44453D3342
:100D16000D0A0041542B43574A41503D2248554144
:100D26005745495039222C22616D61796132303242
:100D360030220D0A0041542B43495053544152541A
:100D46003D22544350222C223138342E3130362E57
:100D56003135332E313439222C38300D0A004154C6
:100D66002B43495053454E443D34390D0A004745FF
:100D760054202F7570646174653F6B65793D4C55E1
:100D8600584239413334533337323858585926008C
:100D96006669656C64313D006669656C64323D0068
:100DA6006669656C64333D006669656C64343D0054
:0E0DB60041542B434950434C4F53450D0A0006
:00000001FF
